{
  "contractName": "Tweets",
  "abi": [
    {
      "constant": true,
      "inputs": [
        {
          "internalType": "bytes32",
          "name": "",
          "type": "bytes32"
        }
      ],
      "name": "TweetDb",
      "outputs": [
        {
          "internalType": "string",
          "name": "user",
          "type": "string"
        },
        {
          "internalType": "string",
          "name": "text",
          "type": "string"
        },
        {
          "internalType": "uint256",
          "name": "likes",
          "type": "uint256"
        }
      ],
      "payable": false,
      "stateMutability": "view",
      "type": "function"
    },
    {
      "constant": false,
      "inputs": [
        {
          "internalType": "string",
          "name": "txt",
          "type": "string"
        },
        {
          "internalType": "bool",
          "name": "inc",
          "type": "bool"
        }
      ],
      "name": "TweetLiker",
      "outputs": [],
      "payable": false,
      "stateMutability": "nonpayable",
      "type": "function"
    },
    {
      "constant": false,
      "inputs": [
        {
          "internalType": "string",
          "name": "TweetText",
          "type": "string"
        },
        {
          "internalType": "string",
          "name": "ReplyText",
          "type": "string"
        },
        {
          "internalType": "string",
          "name": "username",
          "type": "string"
        }
      ],
      "name": "replies",
      "outputs": [],
      "payable": false,
      "stateMutability": "nonpayable",
      "type": "function"
    }
  ],
  "bytecode": "0x608060405234801561001057600080fd5b50610887806100206000396000f3fe608060405234801561001057600080fd5b50600436106100415760003560e01c80632814febe14610046578063bd27d74114610160578063fb004ffa14610227575b600080fd5b6100726004803603602081101561005c57600080fd5b8101908080359060200190929190505050610410565b604051808060200180602001848152602001838103835286818151815260200191508051906020019080838360005b838110156100bc5780820151818401526020810190506100a1565b50505050905090810190601f1680156100e95780820380516001836020036101000a031916815260200191505b50838103825285818151815260200191508051906020019080838360005b83811015610122578082015181840152602081019050610107565b50505050905090810190601f16801561014f5780820380516001836020036101000a031916815260200191505b509550505050505060405180910390f35b6102256004803603604081101561017657600080fd5b810190808035906020019064010000000081111561019357600080fd5b8201836020820111156101a557600080fd5b803590602001918460018302840111640100000000831117156101c757600080fd5b91908080601f016020809104026020016040519081016040528093929190818152602001838380828437600081840152601f19601f82011690508083019250505050505050919291929080351515906020019092919050505061056a565b005b61040e6004803603606081101561023d57600080fd5b810190808035906020019064010000000081111561025a57600080fd5b82018360208201111561026c57600080fd5b8035906020019184600183028401116401000000008311171561028e57600080fd5b91908080601f016020809104026020016040519081016040528093929190818152602001838380828437600081840152601f19601f820116905080830192505050505050509192919290803590602001906401000000008111156102f157600080fd5b82018360208201111561030357600080fd5b8035906020019184600183028401116401000000008311171561032557600080fd5b91908080601f016020809104026020016040519081016040528093929190818152602001838380828437600081840152601f19601f8201169050808301925050505050505091929192908035906020019064010000000081111561038857600080fd5b82018360208201111561039a57600080fd5b803590602001918460018302840111640100000000831117156103bc57600080fd5b91908080601f016020809104026020016040519081016040528093929190818152602001838380828437600081840152601f19601f8201169050808301925050505050505091929192905050506106a5565b005b6000602052806000526040600020600091509050806000018054600181600116156101000203166002900480601f0160208091040260200160405190810160405280929190818152602001828054600181600116156101000203166002900480156104bc5780601f10610491576101008083540402835291602001916104bc565b820191906000526020600020905b81548152906001019060200180831161049f57829003601f168201915b505050505090806001018054600181600116156101000203166002900480601f01602080910402602001604051908101604052809291908181526020018280546001816001161561010002031660029004801561055a5780601f1061052f5761010080835404028352916020019161055a565b820191906000526020600020905b81548152906001019060200180831161053d57829003601f168201915b5050505050908060020154905083565b8061060a57600080836040516020018082805190602001908083835b602083106105a95780518252602082019150602081019050602083039250610586565b6001836020036101000a038019825116818451168082178552505050505050905001915050604051602081830303815290604052805190602001208152602001908152602001600020600201600081548092919060019003919050556106a0565b600080836040516020018082805190602001908083835b602083106106445780518252602082019150602081019050602083039250610621565b6001836020036101000a0380198251168184511680821785525050505050509050019150506040516020818303038152906040528051906020012081526020019081526020016000206002016000815480929190600101919050555b505050565b600080846040516020018082805190602001908083835b602083106106df57805182526020820191506020810190506020830392506106bc565b6001836020036101000a0380198251168184511680821785525050505050509050019150506040516020818303038152906040528051906020012081526020019081526020016000206003016040518060400160405280838152602001848152509080600181540180825580915050906001820390600052602060002090600202016000909192909190915060008201518160000190805190602001906107879291906107ad565b5060208201518160010190805190602001906107a49291906107ad565b50505050505050565b828054600181600116156101000203166002900490600052602060002090601f016020900481019282601f106107ee57805160ff191683800117855561081c565b8280016001018555821561081c579182015b8281111561081b578251825591602001919060010190610800565b5b509050610829919061082d565b5090565b61084f91905b8082111561084b576000816000905550600101610833565b5090565b9056fea265627a7a723158207c85ea82f899b97f2b347d827a24670a018de55e7171bd8cd66bfd2e9dfae82864736f6c63430005100032",
  "source": "// SPDX-License-Identifier: MIT\r\npragma solidity >=0.4.21 <8.10.0;\r\n\r\ncontract Tweets{\r\n    /* constructor(string memory txt, string memory username){\r\n        bytes32 HashCode = keccak256(abi.encodePacked(txt));\r\n        tweet memory temp;\r\n        temp.text = txt;\r\n        temp.user = username;\r\n        temp.likes = 0;\r\n        TweetDb[HashCode] = temp;\r\n    } */\r\n    struct tweet{\r\n        string user;\r\n        string text;\r\n        uint likes;\r\n        reply[] replies;\r\n        // mapping(bytes32=>reply);\r\n    }\r\n    struct reply{\r\n        string user;\r\n        string text;\r\n        // uint likes;\r\n    }\r\n    mapping(bytes32=>tweet) public TweetDb;\r\n    function TweetLiker(string memory txt, bool inc) public {\r\n        inc?TweetDb[keccak256(abi.encodePacked(txt))].likes++:TweetDb[keccak256(abi.encodePacked(txt))].likes--;\r\n    }\r\n    function replies(string memory TweetText, string memory ReplyText, string memory username) public{\r\n        TweetDb[keccak256(abi.encodePacked(TweetText))].replies.push(reply(username,ReplyText));\r\n    }\r\n}",
  "sourcePath": "F:\\twitter\\contracts\\Tweets.sol",
  "compiler": {
    "name": "solc",
    "version": "0.5.16+commit.9c3226ce.Emscripten.clang"
  },
  "schemaVersion": "3.4.4",
  "updatedAt": "2022-05-04T06:55:31.772Z",
  "devdoc": {
    "methods": {}
  },
  "userdoc": {
    "methods": {}
  }
}