{
  "contractName": "Tweets",
  "abi": [
    {
      "anonymous": false,
      "inputs": [
        {
          "indexed": false,
          "internalType": "bool",
          "name": "flag",
          "type": "bool"
        }
      ],
      "name": "log",
      "type": "event"
    },
    {
      "constant": false,
      "inputs": [
        {
          "internalType": "string",
          "name": "txt",
          "type": "string"
        },
        {
          "internalType": "uint256",
          "name": "likes",
          "type": "uint256"
        },
        {
          "internalType": "bytes32",
          "name": "HashCode",
          "type": "bytes32"
        }
      ],
      "name": "TweetVerify",
      "outputs": [],
      "payable": false,
      "stateMutability": "nonpayable",
      "type": "function"
    }
  ],
  "bytecode": "0x608060405234801561001057600080fd5b50610238806100206000396000f3fe608060405234801561001057600080fd5b506004361061002b5760003560e01c8063faa1954514610030575b600080fd5b6100fd6004803603606081101561004657600080fd5b810190808035906020019064010000000081111561006357600080fd5b82018360208201111561007557600080fd5b8035906020019184600183028401116401000000008311171561009757600080fd5b91908080601f016020809104026020016040519081016040528093929190818152602001838380828437600081840152601f19601f82011690508083019250505050505050919291929080359060200190929190803590602001909291905050506100ff565b005b8083836040516020018083805190602001908083835b602083106101385780518252602082019150602081019050602083039250610115565b6001836020036101000a038019825116818451168082178552505050505050905001828152602001925050506040516020818303038152906040528051906020012014156101c1577f32458eed3feca62a69292a55ca8a755ae4e6cdc57a38d15c298330064467fdd76001604051808215151515815260200191505060405180910390a16101fe565b7f32458eed3feca62a69292a55ca8a755ae4e6cdc57a38d15c298330064467fdd76000604051808215151515815260200191505060405180910390a15b50505056fea265627a7a7231582080821feb569d46a7bf9fa64efc4982907d6e8ae5e2961650ca460135df2132e064736f6c63430005100032",
  "source": "// SPDX-License-Identifier: MIT\r\npragma solidity >=0.4.21 <8.10.0;\r\n\r\ncontract Tweets {\r\n    event log(bool flag);\r\n    function TweetVerify(string memory txt, uint likes, bytes32 HashCode) public{\r\n        if (keccak256(abi.encodePacked(txt,likes))==HashCode) {\r\n            emit log(true);\r\n        } else {\r\n            emit log(false);\r\n        }\r\n    }\r\n    /* struct tweet {\r\n        string user;\r\n        string text;\r\n        uint256 likes;\r\n        reply[] replies;\r\n        // mapping(bytes32=>reply);\r\n    }\r\n    struct reply {\r\n        string user;\r\n        string text;\r\n        // uint likes;\r\n    }\r\n    mapping(bytes32 => tweet) public TweetDb;\r\n\r\n    function Tweet(string memory txt, string memory username) public {\r\n        bytes32 HashCode = keccak256(abi.encodePacked(txt));\r\n        tweet memory temp;\r\n        temp.text = txt;\r\n        temp.user = username;\r\n        temp.likes = 0;\r\n        TweetDb[HashCode] = temp;\r\n    }\r\n\r\n    function liker(string memory txt, bool inc) public {\r\n        inc\r\n            ? TweetDb[keccak256(abi.encodePacked(txt))].likes++\r\n            : TweetDb[keccak256(abi.encodePacked(txt))].likes--;\r\n    }\r\n\r\n    function replies(\r\n        string memory TweetText,\r\n        string memory ReplyText,\r\n        string memory username\r\n    ) public {\r\n        TweetDb[keccak256(abi.encodePacked(TweetText))].replies.push(\r\n            reply(username, ReplyText)\r\n        );\r\n    }\r\n\r\n    function GetTweets() public view returns(tweet[] memory){\r\n\r\n    } */\r\n}\r\n",
  "sourcePath": "F:\\twitter\\contracts\\Tweets.sol",
  "compiler": {
    "name": "solc",
    "version": "0.5.16+commit.9c3226ce.Emscripten.clang"
  },
  "schemaVersion": "3.4.4",
  "updatedAt": "2022-05-09T10:12:39.432Z",
  "devdoc": {
    "methods": {}
  },
  "userdoc": {
    "methods": {}
  }
}